:020000040800F2
:1000000000500020491100084D0F0008550F00084E
:100010005D0F0008650F00086D0F0008000000006C
:10002000000000000000000000000000750F000844
:10003000810F0008000000008D0F0008990F0008D4
:100040009111000891110008911100089111000808
:1000500091110008911100089111000891110008F8
:1000600091110008911100089111000891110008E8
:1000700091110008911100089111000891110008D8
:1000800091110008911100089111000891110008C8
:1000900091110008911100089111000891110008B8
:1000A00091110008911100089111000891110008A8
:1000B0009111000891110008911100089111000898
:1000C000911100089111000891110008A50F000876
:1000D0009111000891110008911100089111000878
:1000E0009111000891110008911100080000000012
:1000F0000000000000000000000000000000000000
:0C01000000000000000000005FF808F1A3
:1001100010B5054C237833B9044B13B10448AFF341
:1001200000800123237010BDDC01002000000000CE
:10013000BC74000808B5034B1BB103490348AFF377
:10014000008008BD00000000E0010020BC74000831
:10015000034613F8012B002AFBD1181A0138704707
:1001600081F0004102E000BF83F0004330B54FEA68
:1001700041044FEA430594EA050F08BF90EA020FD5
:100180001FBF54EA000C55EA020C7FEA645C7FEA68
:10019000655C00F0E2804FEA5454D4EB5555B8BF8B
:1001A0006D420CDD2C4480EA020281EA030382EAFC
:1001B000000083EA010180EA020281EA0303362D8E
:1001C00088BF30BD11F0004F4FEA01314FF4801C61
:1001D0004CEA113102D0404261EB410113F0004F73
:1001E0004FEA03334CEA133302D0524263EB43032A
:1001F00094EA050F00F0A780A4F10104D5F1200EC8
:100200000DDB02FA0EFC22FA05F2801841F1000122
:1002100003FA0EF2801843FA05F359410EE0A5F1F6
:1002200020050EF1200E012A03FA0EFC28BF4CF027
:10023000020C43FA05F3C01851EBE37101F00045DD
:1002400007D54FF0000EDCF1000C7EEB00006EEBEA
:100250000101B1F5801F1BD3B1F5001F0CD3490874
:100260005FEA30004FEA3C0C04F101044FEA4452CB
:1002700012F5800F80F09A80BCF1004F08BF5FEA52
:10028000500C50F1000041EB045141EA050130BD32
:100290005FEA4C0C404141EB0101013C28BFB1F544
:1002A000801FE9D291F0000F04BF01460020B1FA8F
:1002B00081F308BF2033A3F10B03B3F120020CDA62
:1002C0000C3208DD02F1140CC2F10C0201FA0CF040
:1002D00021FA02F10CE002F11402D8BFC2F1200CA5
:1002E00001FA02F120FA0CFCDCBF41EA0C0190405B
:1002F000E41AA2BF01EB0451294330BD6FEA0404A4
:100300001F3C1CDA0C340EDC04F11404C4F120028E
:1003100020FA04F001FA02F340EA030021FA04F3A0
:1003200045EA030130BDC4F10C04C4F1200220FAF7
:1003300002F001FA04F340EA0300294630BD21FA35
:1003400004F0294630BD94F0000F83F4801306BFFB
:1003500081F480110134013D4EE77FEA645C18BFEF
:100360007FEA655C29D094EA050F08BF90EA020F86
:1003700005D054EA000C04BF1946104630BD91EA7E
:10038000030F1EBF0021002030BD5FEA545C05D181
:100390004000494128BF41F0004130BD14F58004C0
:1003A0003CBF01F5801130BD01F0004545F0FE4134
:1003B00041F470014FF0000030BD7FEA645C1ABF69
:1003C000194610467FEA655C1CBF0B46024650EAA0
:1003D000013406BF52EA033591EA030F41F40021CC
:1003E00030BD00BF90F0000F04BF0021704730B552
:1003F0004FF4806404F132044FF000054FF0000127
:1004000050E700BF90F0000F04BF0021704730B5E7
:100410004FF4806404F1320410F0004548BF4042BC
:100420004FF000013EE700BF42004FEAE2014FEA11
:1004300031014FEA02701FBF12F07F4393F07F4FEC
:1004400081F06051704732F07F4208BF704793F0EF
:100450007F4F04BF41F40021704730B54FF4607402
:1004600001F0004521F000411CE700BF50EA010205
:1004700008BF704730B54FF000050AE050EA0102AE
:1004800008BF704730B511F0004502D5404261EB1E
:1004900041014FF4806404F132045FEA915C3FF45F
:1004A000D8AE4FF003025FEADC0C18BF03325FEAFC
:1004B000DC0C18BF033202EBDC02C2F1200300FAAD
:1004C00003FC20FA02F001FA03FE40EA0E0021FAD2
:1004D00002F11444BDE600BF70B54FF0FF0C4CF4C0
:1004E000E06C1CEA11541DBF1CEA135594EA0C0F72
:1004F00095EA0C0F00F0DEF82C4481EA030621EAAD
:100500004C5123EA4C5350EA013518BF52EA0335E7
:1005100041F4801143F4801338D0A0FB02CE4FF099
:100520000005E1FB02E506F00042E0FB03E54FF0C9
:100530000006E1FB03569CF0000F18BF4EF0010EC1
:10054000A4F1FF04B6F5007F64F5407404D25FEABD
:100550004E0E6D4146EB060642EAC62141EA555170
:100560004FEAC52040EA5E504FEACE2EB4F1FD0CB2
:1005700088BFBCF5E06F1ED8BEF1004F08BF5FEA30
:10058000500E50F1000041EB045170BD06F00046E2
:1005900046EA010140EA020081EA0301B4EB5C048F
:1005A000C2BFD4EB0C0541EA045170BD41F4801187
:1005B0004FF0000E013C00F3AB8014F1360FDEBFAC
:1005C000002001F0004170BDC4F10004203C35DA88
:1005D0000C341BDC04F11404C4F1200500FA05F30B
:1005E00020FA04F001FA05F240EA020001F00042AC
:1005F00021F0004110EBD37021FA04F642EB060122
:100600005EEA430E08BF20EAD37070BDC4F10C044B
:10061000C4F1200500FA04F320FA05F001FA04F20F
:1006200040EA020001F0004110EBD37041F10001FB
:100630005EEA430E08BF20EAD37070BDC4F1200506
:1006400000FA05F24EEA020E20FA04F301FA05F26E
:1006500043EA020321FA04F001F0004121FA04F216
:1006600020EA020000EBD3705EEA430E08BF20EAE6
:10067000D37070BD94F0000F0FD101F00046400020
:1006800041EB010111F4801F08BF013CF7D041EAA2
:10069000060195F0000F18BF704703F000465200A6
:1006A00043EB030313F4801F08BF013DF7D043EA77
:1006B0000603704794EA0C0F0CEA135518BF95EA2D
:1006C0000C0F0CD050EA410618BF52EA4306D1D1B4
:1006D00081EA030101F000414FF0000070BD50EAD3
:1006E000410606BF1046194652EA430619D094EA5D
:1006F0000C0F02D150EA013613D195EA0C0F05D147
:1007000052EA03361CBF104619460AD181EA03019A
:1007100001F0004141F0FE4141F470014FF0000052
:1007200070BD41F0FE4141F4780170BD70B54FF0ED
:10073000FF0C4CF4E06C1CEA11541DBF1CEA13556D
:1007400094EA0C0F95EA0C0F00F0A7F8A4EB05044F
:1007500081EA030E52EA03354FEA013100F0888046
:100760004FEA03334FF0805545EA131343EA12630F
:100770004FEA022245EA111545EA10654FEA0026C4
:100780000EF000419D4208BF964244F1FD0404F57D
:10079000407402D25B084FEA3202B61A65EB0305D9
:1007A0005B084FEA32024FF480104FF4002CB6EB96
:1007B000020E75EB030E22BFB61A754640EA0C0016
:1007C0005B084FEA3202B6EB020E75EB030E22BF56
:1007D000B61A754640EA5C005B084FEA3202B6EB97
:1007E000020E75EB030E22BFB61A754640EA9C0056
:1007F0005B084FEA3202B6EB020E75EB030E22BF26
:10080000B61A754640EADC0055EA060E18D04FEAE3
:10081000051545EA16754FEA06164FEAC30343EA83
:1008200052734FEAC2025FEA1C1CC0D111F4801F50
:100830000BD141EA00014FF000004FF0004CB6E749
:1008400011F4801F04BF01430020B4F1FD0C88BFE8
:10085000BCF5E06F3FF6AFAEB5EB030C04BFB6EBF3
:10086000020C5FEA500C50F1000041EB045170BDE6
:100870000EF0004E4EEA113114EB5C04C2BFD4EB13
:100880000C0541EA045170BD41F480114FF0000E97
:10089000013C90E645EA060E8DE60CEA135594EA13
:1008A0000C0F08BF95EA0C0F3FF43BAF94EA0C0F16
:1008B0000AD150EA01347FF434AF95EA0C0F7FF48B
:1008C00025AF104619462CE795EA0C0F06D152EADF
:1008D00003353FF4FDAE1046194622E750EA4106C3
:1008E00018BF52EA43067FF4C5AE50EA41047FF4D4
:1008F0000DAF52EA43057FF4EBAE12E74FF0FF3C39
:1009000006E000BF4FF0010C02E000BF4FF0010C09
:100910004DF804CD4FEA410C7FEA6C5C4FEA430C82
:1009200018BF7FEA6C5C1BD001B050EA410C0CBFD1
:1009300052EA430C91EA030F02BF90EA020F002033
:10094000704710F1000F91EA030F58BF994208BF9A
:1009500090422CBFD8176FEAE37040F00100704757
:100960004FEA410C7FEA6C5C02D150EA013C07D1AE
:100970004FEA430C7FEA6C5CD6D152EA033CD3D0F9
:100980005DF8040B704700BF8446104662468C46F3
:100990001946634600E000BF01B5FFF7B7FF002826
:1009A00048BF10F1000F01BD4DF808EDFFF7F4FF4F
:1009B0000CBF012000205DF808FB00BF4DF808EDDA
:1009C000FFF7EAFF34BF012000205DF808FB00BFFD
:1009D0004DF808EDFFF7E0FF94BF012000205DF81F
:1009E00008FB00BF4DF808EDFFF7CEFF94BF0120D4
:1009F00000205DF808FB00BF4DF808EDFFF7C4FFCD
:100A000034BF012000205DF808FB00BF4FEA410C15
:100A10007FEA6C5C02D150EA013C0AD14FEA430CF8
:100A20007FEA6C5C02D152EA033C02D14FF0000035
:100A300070474FF0010070474FEA410212F5001273
:100A400015D211D56FF47873B3EB625212D94FEA15
:100A5000C12343F0004343EA505311F0004F23FAFF
:100A600002F018BF404270474FF00000704750EA54
:100A7000013005D111F0004008BF6FF00040704711
:100A80004FF00000704700BF4A0011D212F500126B
:100A900011D20DD56FF47873B3EB62520ED44FEAD6
:100AA000C12343F0004343EA505323FA02F0704756
:100AB0004FF00000704750EA013002D14FF0FF3094
:100AC00070474FF0000070474FEA4102B2F1E04337
:100AD00024BFB3F5001CDCF1FE5C0DD901F0004C25
:100AE0004FEAC0024CEA5070B2F1004F40EB830075
:100AF00008BF20F00100704711F0804F21D113F1A1
:100B00003872BCBF01F00040704741F480114FEAD9
:100B10005252C2F11802C2F1200C10FA0CF320FA62
:100B200002F018BF40F001004FEAC1234FEAD3237F
:100B300003FA0CFC40EA0C0023FA02F34FEA4303E9
:100B4000CCE77FEA625307D150EA01331EBF4FF072
:100B5000FE4040F44000704701F0004040F0FE408D
:100B600040F40000704700BF38B50022002304465F
:100B70000D46FFF723FF28B920462946BDE8384037
:100B800000F00AB8204605F1004100F005F84042A7
:100B900061EB410138BD00BFD0B500220B4B0646CA
:100BA0000F46FFF799FCFFF76FFF0446FFF71AFCAB
:100BB0000022074BFFF790FC02460B4630463946B1
:100BC000FFF7D2FAFFF760FF2146D0BD0000F03DED
:100BD0000000F04180B500AF00F0DCFA00F092F8C0
:100BE00000F0FEF800F0CAF8034801F057FA00F0F0
:100BF0002BF800BFFDE700BFF801002080B584B0EE
:100C000000AF78607B681B680C4A934212D10023C6
:100C1000FB607B681B68DB68FB607B681B689B680C
:100C2000FB60FB68786801F0E3FB0122044905489A
:100C300001F0B8FA00BF1037BD4680BD003001405A
:100C400050020020F801002080B500AF01220349C6
:100C5000034801F0A7FA00BF80BD00BF500200208A
:100C6000F801002080B582B000AF78607B681B6817
:100C7000114A93421CD1114B1B78012B02D0022B3D
:100C800005D009E00E4B1B680E4A13600AE00E4BBC
:100C90001B680C4A136005E004221121094803F087
:100CA0003EF800BF0423094A0649094801F012FB37
:100CB00000BF0837BD4680BD003001405002002013
:100CC00000000020580200200400002054020020F0
:100CD000F801002080B582B000AF78607B681B68A7
:100CE000054A934204D101220449054801F05AFA09
:100CF00000BF0837BD4680BD0030014050020020D3
:100D0000F801002080B590B000AF07F11803282249
:100D10000021184603F003F83B1D00221A605A60B8
:100D20009A60DA601A610223BB610123BB6210235F
:100D3000FB6200237B6307F11803184600F0D0FD27
:100D40000346002B01D000F077F80F237B600023CF
:100D5000BB600023FB6000233B6100237B613B1DE4
:100D60000021184601F03EF80346002B01D000F0A8
:100D700063F800BF4037BD4680BD000080B500AFBE
:100D8000154B164A1A60144B00225A60124B00226F
:100D90009A60114B0022DA600F4B00221A610E4B51
:100DA00000225A610C4B00229A610B4B00221A62FE
:100DB000094B00225A62084B00229A62064B0A2213
:100DC000DA62054801F06AF90346002B01D000F011
:100DD00033F800BF80BD00BFF801002000300140A3
:100DE00080B586B000AF07F1080300221A605A6090
:100DF0009A60DA600E4B9B690D4A43F004039361DD
:100E00000B4B9B6903F004037B607B680423BB608E
:100E10000123FB6000233B6102237B6107F1080390
:100E20001946044800F0D8FB00BF1837BD4680BD06
:100E3000001002400008014080B400AF72B600BF4D
:100E400000BFFDE780B485B000AF154B9B69144A25
:100E500043F001039361124B9B6903F00103BB60F4
:100E6000BB680F4BDB690E4A43F08053D3610C4BD8
:100E7000DB6903F080537B607B680A4B5B68FB6037
:100E8000FB6823F0E063FB60FB6843F08063FB607A
:100E9000044AFB68536000BF1437BD4680BC7047EE
:100EA000001002400000014080B588B000AF7860BB
:100EB00007F1100300221A605A609A60DA607B68BA
:100EC0001B681F4A934237D11E4B9B691D4A43F44E
:100ED000805393611B4B9B6903F48053FB60FB6859
:100EE000184B9B69174A43F004039361154B9B69A8
:100EF00003F00403BB60BB68B0233B6100237B614C
:100F00000023BB6107F1100319460F4800F064FB92
:100F100040233B6102237B610323FB6107F1100344
:100F20001946094800F058FB00220021232000F058
:100F30006AFA232000F083FA00BF2037BD4680BD47
:100F400000300140001002400008014080B400AFB2
:100F500000BFFDE780B400AF00BFFDE780B400AF85
:100F600000BFFDE780B400AF00BFFDE780B400AF75
:100F700000BFFDE780B400AF00BFBD4680BC704736
:100F800080B400AF00BFBD4680BC704780B400AFE6
:100F900000BFBD4680BC704780B500AF00F040F98F
:100FA00000BF80BD80B500AF024801F005FB00BF67
:100FB00080BD00BFF801002080B400AF01231846B7
:100FC000BD4680BC704780B582B000AF78603960A4
:100FD00002F0F8FE034616221A604FF0FF3318465F
:100FE0000837BD4680BD80B582B000AF78604FF055
:100FF000FF317868FFF7E7FF00BFFDE780B586B0F7
:1010000000AFF860B9607A6000237B610AE0AFF35B
:1010100000800146BB685A1CBA60CAB21A707B696C
:1010200001337B617A697B689A42F0DB7B68184602
:101030001837BD4680BD80B586B000AFF860B96096
:101040007A6000237B6109E0BB685A1CBA601B7898
:101050001846AFF300807B6901337B617A697B6856
:101060009A42F1DB7B6818461837BD4680BD80B4D4
:1010700083B000AF78604FF0FF3318460C37BD46A1
:1010800080BC704780B483B000AF786039603B6843
:101090004FF400525A60002318460C37BD4680BCFE
:1010A000704780B483B000AF7860012318460C37D6
:1010B000BD4680BC704780B485B000AFF860B960B1
:1010C0007A60002318461437BD4680BC7047000084
:1010D00080B586B000AF7860144A154BD31A7B6197
:1010E0007B693B61134B1B68002B02D1114B124AE9
:1010F0001A60104B1A687B6813443A699A4207D207
:1011000002F060FE03460C221A604FF0FF3309E044
:10111000084B1B68FB60074B1A687B681344054A41
:101120001360FB6818461837BD4680BD005000208C
:10113000000400005C020020B003002080B400AF77
:1011400000BFBD4680BC7047FFF7F8FF0B480C4955
:101150000C4A002302E0D458C4500433C4188C4213
:10116000F9D3094A094C002301E013600432A2427A
:10117000FBD302F02DFEFFF72DFD7047000000208D
:10118000DC01002034790008DC010020B0030020DD
:10119000FEE7000080B500AF084B1B68074A43F02C
:1011A00010031360032000F023F90F2000F008F86B
:1011B000FFF748FE0023184680BD00BF0020024014
:1011C00080B582B000AF7860124B1A68124B1B7862
:1011D00019464FF47A73B3FBF1F3B2FBF3F31846FD
:1011E00000F03BF90346002B01D001230EE07B68A1
:1011F0000F2B0AD8002279684FF0FF3000F003F976
:10120000064A7B681360002300E001231846083774
:10121000BD4680BD08000020100000200C0000200A
:1012200080B400AF054B1B781A46054B1B6813446E
:10123000034A136000BFBD4680BC70471000002009
:101240006002002080B400AF024B1B681846BD4608
:1012500080BC70476002002080B485B000AF786029
:101260007B6803F00703FB600C4BDB68BB60BA686C
:101270004FF6FF031340BB60FB681A02BB681343C1
:1012800043F0BF6343F40033BB60044ABB68D360E0
:1012900000BF1437BD4680BC704700BF00ED00E0C2
:1012A00080B400AF044BDB681B0A03F00703184649
:1012B000BD4680BC704700BF00ED00E080B483B045
:1012C00000AF0346FB7197F90730002B0BDBFB796E
:1012D00003F01F02064997F907305B09012000FA65
:1012E00002F241F8232000BF0C37BD4680BC704796
:1012F00000E100E080B483B000AF03463960FB71C9
:1013000097F90730002B0ADB3B68DAB20C4997F9F2
:1013100007301201D2B20B4483F800230AE03B6885
:10132000DAB20849FB7903F00F03043B1201D2B291
:101330000B441A7600BF0C37BD4680BC704700BF17
:1013400000E100E000ED00E080B489B000AFF8609B
:10135000B9607A60FB6803F00703FB61FB69C3F1C6
:101360000703042B28BF0423BB61FB690433062B4E
:1013700002D9FB69033B00E000237B614FF0FF32A1
:10138000BB6902FA03F3DA43BB681A407B699A40EF
:101390004FF0FF317B6901FA03F3D9437B680B40BF
:1013A000134318462437BD4680BC704780B582B0D1
:1013B00000AF78607B68013BB3F1807F01D30123EC
:1013C0000FE00A4A7B68013B53600F214FF0FF306A
:1013D000FFF790FF054B00229A60044B07221A602A
:1013E000002318460837BD4680BD00BF10E000E06E
:1013F00080B582B000AF78607868FFF72DFF00BF3E
:101400000837BD4680BD80B586B000AF0346B960E1
:101410007A60FB7300237B61FFF742FF78617A6893
:10142000B9687869FFF790FF024697F90F301146C7
:101430001846FFF75FFF00BF1837BD4680BD80B577
:1014400082B000AF0346FB7197F907301846FFF7EB
:1014500035FF00BF0837BD4680BD80B582B000AF04
:1014600078607868FFF7A2FF034618460837BD4644
:1014700080BD80B485B000AF78600023FB737B68CB
:1014800093F82130DBB2022B08D07B6804229A63E8
:101490007B68002283F82020012320E07B681B6802
:1014A0001A687B681B6822F00E021A607B681B6852
:1014B0001A687B681B6822F001021A607B681A6C4C
:1014C0007B68DB6B012101FA02F25A607B68012222
:1014D00083F821207B68002283F82020FB7B1846BC
:1014E0001437BD4680BC704780B584B000AF7860CB
:1014F0000023FB737B6893F82130DBB2022B05D00D
:101500007B6804229A630123FB7351E07B681B68AC
:101510001A687B681B6822F00E021A607B681B68E1
:101520001A687B681B6822F001021A607B681B68DE
:10153000224A934229D07B681B68214A934222D0D9
:101540007B681B681F4A93421AD07B681B681E4A3F
:10155000934212D07B681B681C4A93420AD07B6876
:101560001B681B4A934202D14FF480130EE04FF0E8
:1015700080730BE04FF4803308E04FF4805305E0B4
:101580004FF4807302E0102300E00123114A5360FE
:101590007B68012283F821207B68002283F82020C9
:1015A0007B685B6B002B03D07B685B6B786898472C
:1015B000FB7B18461037BD4680BD00BF08000240C7
:1015C0001C0002403000024044000240580002402B
:1015D0006C0002400000024080B48BB000AF786025
:1015E000396000237B6200233B6269E101227B6A50
:1015F00002FA03F3FB613B681B68FA691340BB61A5
:10160000BA69FB699A4240F058813B685B689A4A24
:1016100093425ED0984A934275D8984A934258D0E4
:10162000964A93426FD8964A934252D0944A934234
:1016300069D8944A93424CD0924A934263D8924AD2
:10164000934246D0904A93425DD8122B2AD8122B4F
:1016500059D801A252F823F0D3160008AD1600089D
:10166000BF16000801170008071700080717000831
:1016700007170008071700080717000807170008D2
:1016800007170008071700080717000807170008C2
:10169000071700080717000807170008B516000805
:1016A000C9160008794A934213D02CE03B68DB68E6
:1016B0003B6229E03B68DB6804333B6224E03B6823
:1016C000DB6808333B621FE03B68DB680C333B623E
:1016D0001AE03B689B68002B02D104233B6213E0B5
:1016E0003B689B68012B05D108233B627B68FA6944
:1016F0001A6109E008233B627B68FA695A6103E0DA
:1017000000233B6200E000BFBB69FF2B01D87B6870
:1017100001E07B6804337B61BB69FF2B02D87B6AE5
:101720009B0002E07B6A083B9B003B617B691A6877
:101730000F213B6901FA03F3DB431A40396A3B6925
:1017400001FA03F31A437B691A603B685B6803F094
:101750008053002B00F0B1804D4B9B694C4A43F005
:10176000010393614A4B9B6903F00103BB60BB68B3
:10177000484A7B6A9B08023352F82330FB607B6A3D
:1017800003F003039B000F2202FA03F3DB43FA6822
:101790001340FB607B68404A934213D07B683F4A0A
:1017A00093420DD07B683E4A934207D07B683D4A06
:1017B000934201D1032306E0042304E0022302E064
:1017C000012300E000237A6A02F0030292009340B2
:1017D000FA681343FB602F497B6A9B080233FA685F
:1017E00041F823203B685B6803F48013002B06D08C
:1017F0002D4B9A682C49BB6913438B6006E02A4B3A
:101800009A68BB69DB43284913408B603B685B687F
:1018100003F40013002B06D0234BDA682249BB697E
:101820001343CB6006E0204BDA68BB69DB431E49FB
:101830001340CB603B685B6803F40033002B06D099
:10184000194B5A681849BB6913434B6006E0164BA5
:101850005A68BB69DB43144913404B603B685B68C3
:1018600003F48033002B21D00F4B1A680E49BB695B
:1018700013430B6021E000BF000032100000311064
:1018800000002210000021100000121000001110B2
:10189000001002400000014000080140000C01401F
:1018A0000010014000140140000401400B4B1A6875
:1018B000BB69DB43094913400B607B6A01337B62E0
:1018C0003B681A687B6A22FA03F3002B7FF48EAE22
:1018D00000BF00BF2C37BD4680BC704700040140EC
:1018E00080B586B000AF78607B68002B01D1012302
:1018F00072E27B681B6803F00103002B00F0878015
:10190000924B5B6803F00C03042B0CD08F4B5B688D
:1019100003F00C03082B12D18C4B5B6803F480336B
:10192000B3F5803F0BD1894B1B6803F40033002BC8
:101930006CD07B685B68002B68D101234CE27B682C
:101940005B68B3F5803F06D1804B1B687F4A43F448
:10195000803313602EE07B685B68002B0CD17B4BDF
:101960001B687A4A23F480331360784B1B68774AEC
:1019700023F4802313601DE07B685B68B3F5A02F20
:101980000CD1724B1B68714A43F4802313606F4B78
:101990001B686E4A43F4803313600BE06B4B1B688B
:1019A0006A4A23F480331360684B1B68674A23F448
:1019B000802313607B685B68002B13D0FFF742FC29
:1019C000386108E0FFF73EFC02463B69D31A642BFE
:1019D00001D9032300E25D4B1B6803F40033002BA5
:1019E000F0D014E0FFF72EFC386108E0FFF72AFC86
:1019F00002463B69D31A642B01D90323ECE1534B14
:101A00001B6803F40033002BF0D100E000BF7B68BB
:101A10001B6803F00203002B63D04C4B5B6803F0A0
:101A20000C03002B0BD0494B5B6803F00C03082B15
:101A30001CD1464B5B6803F48033002B16D1434B1B
:101A40001B6803F00203002B05D07B681B69012B88
:101A500001D00123C0E13D4B1B6823F0F8027B68F5
:101A60005B69DB00394913430B603AE07B681B6913
:101A7000002B20D0364B01221A60FFF7E3FB3861C0
:101A800008E0FFF7DFFB02463B69D31A022B01D9BE
:101A90000323A1E12D4B1B6803F00203002BF0D0C0
:101AA0002A4B1B6823F0F8027B685B69DB0027493F
:101AB00013430B6015E0264B00221A60FFF7C2FBB0
:101AC000386108E0FFF7BEFB02463B69D31A022BE0
:101AD00001D9032380E11D4B1B6803F00203002B97
:101AE000F0D17B681B6803F00803002B3AD07B68B9
:101AF0009B69002B19D0174B01221A60FFF7A2FB3C
:101B0000386108E0FFF79EFB02463B69D31A022BBF
:101B100001D9032360E10D4B5B6A03F00203002B44
:101B2000F0D0012000F09CFA1CE00A4B00221A6061
:101B3000FFF788FB38610FE0FFF784FB02463B6943
:101B4000D31A022B08D9032346E100BF001002403C
:101B50000000424280044242924B5B6A03F002035F
:101B6000002BE9D17B681B6803F00403002B00F015
:101B7000A6800023FB758B4BDB6903F08053002BA1
:101B80000DD1884BDB69874A43F08053D361854B85
:101B9000DB6903F08053BB60BB680123FB75824B9C
:101BA0001B6803F48073002B18D17F4B1B687E4A9F
:101BB00043F480731360FFF745FB386108E0FFF7DB
:101BC00041FB02463B69D31A642B01D9032303E18D
:101BD000754B1B6803F48073002BF0D07B68DB68C7
:101BE000012B06D16F4B1B6A6E4A43F0010313624F
:101BF0002DE07B68DB68002B0CD16A4B1B6A694ABD
:101C000023F001031362674B1B6A664A23F0040347
:101C100013621CE07B68DB68052B0CD1614B1B6AEF
:101C2000604A43F0040313625E4B1B6A5D4A43F053
:101C3000010313620BE05B4B1B6A5A4A23F001035A
:101C40001362584B1B6A574A23F0040313627B68E4
:101C5000DB68002B15D0FFF7F5FA38610AE0FFF7D3
:101C6000F1FA02463B69D31A41F28832934201D914
:101C70000323B1E04B4B1B6A03F00203002BEED0B1
:101C800014E0FFF7DFFA38610AE0FFF7DBFA0246FB
:101C90003B69D31A41F28832934201D903239BE076
:101CA000404B1B6A03F00203002BEED1FB7D012B9E
:101CB00005D13C4BDB693B4A23F08053D3617B6801
:101CC000DB69002B00F08780364B5B6803F00C0368
:101CD000082B61D07B68DB69022B46D1334B002295
:101CE0001A60FFF7AFFA386108E0FFF7ABFA024677
:101CF0003B69D31A022B01D903236DE0294B1B68E2
:101D000003F00073002BF0D17B681B6AB3F5803FB2
:101D100008D1244B5B6823F400327B689B6821491F
:101D200013434B601F4B5B6823F474127B68196A82
:101D30007B685B6A0B431B4913434B601B4B0122BF
:101D40001A60FFF77FFA386108E0FFF77BFA024676
:101D50003B69D31A022B01D903233DE0114B1B68C9
:101D600003F00073002BF0D035E0104B00221A6016
:101D7000FFF768FA386108E0FFF764FA02463B694A
:101D8000D31A022B01D9032326E0064B1B6803F06C
:101D90000073002BF0D11EE07B68DB69012B07D1BB
:101DA000012319E000100240007000406000424230
:101DB0000B4B5B68FB60FB6803F480327B681B6A3B
:101DC0009A4206D1FB6803F470127B685B6A9A4200
:101DD00001D0012300E0002318461837BD4680BD1E
:101DE0000010024080B584B000AF786039607B6835
:101DF000002B01D10123D0E06A4B1B6803F00703DD
:101E00003A689A4210D9674B1B6823F0070265496C
:101E10003B6813430B60634B1B6803F007033A688E
:101E20009A4201D00123B8E07B681B6803F00203EB
:101E3000002B20D07B681B6803F00403002B05D027
:101E4000594B5B68584A43F4E06353607B681B68F6
:101E500003F00803002B05D0534B5B68524A43F450
:101E600060535360504B5B6823F0F0027B689B68C3
:101E70004D4913434B607B681B6803F00103002B43
:101E800040D07B685B68012B07D1474B1B6803F48C
:101E90000033002B15D101237FE07B685B68022BA8
:101EA00007D1414B1B6803F00073002B09D10123BC
:101EB00073E03D4B1B6803F00203002B01D10123AB
:101EC0006BE0394B5B6823F003027B685B68364943
:101ED00013434B60FFF7B6F9F8600AE0FFF7B2F979
:101EE0000246FB68D31A41F28832934201D9032398
:101EF00053E02D4B5B6803F00C027B685B689B0032
:101F00009A42EBD1274B1B6803F007033A689A42C9
:101F100010D2244B1B6823F0070222493B6813436D
:101F20000B60204B1B6803F007033A689A4201D00C
:101F3000012332E07B681B6803F00403002B08D008
:101F4000194B5B6823F4E0627B68DB681649134336
:101F50004B607B681B6803F00803002B09D0124B11
:101F60005B6823F460527B681B69DB000E491343F6
:101F70004B6000F021F802460B4B5B681B0903F035
:101F80000F030A49CB5C22FA03F3094A1360094B99
:101F90001B681846FFF714F9002318461037BD4692
:101FA00080BD00BF0020024000100240D87400082D
:101FB000080000200C00002080B487B000AF002390
:101FC000FB600023BB6000237B6100237B60002358
:101FD0003B611E4B5B68FB60FB6803F00C03042B4A
:101FE00002D0082B03D027E0194B3B6127E0FB68A8
:101FF0009B0C03F00F03174AD35C7B60FB6803F470
:102000008033002B10D0114B5B685B0C03F0010395
:10201000114AD35CBB607B680D4A03FB02F2BB68CC
:10202000B2FBF3F37B6104E07B680C4A02FB03F331
:102030007B617B693B6102E0054B3B6100BF3B6913
:1020400018461C37BD4680BC704700BF00100240D8
:1020500000127A00E8740008F874000800093D00D6
:1020600080B485B000AF78600A4B1B680A4AA2FBB7
:1020700003235B0A7A6802FB03F3FB6000BFFB6883
:102080005A1EFA60002BF9D100BF00BF1437BD46BD
:1020900080BC704708000020D34D621080B582B02C
:1020A00000AF78607B68002B01D1012376E07B686C
:1020B0005B6A002B08D17B685B68B3F5827F09D02F
:1020C0007B680022DA6105E07B6800221A617B6888
:1020D00000225A617B6800229A627B6893F8513033
:1020E000DBB2002B06D17B68002283F85020786891
:1020F000FEF7DAFE7B68022283F851207B681B68BA
:102100001A687B681B6822F040021A607B685B6873
:1021100003F482727B689B6803F404431A437B6870
:10212000DB6803F400631A437B681B6903F0020356
:102130001A437B685B6903F001031A437B689B6960
:1021400003F400731A437B68DB6903F038031A4316
:102150007B681B6A03F0800342EA03017B689B6A89
:1021600003F400527B681B680A431A607B689B6912
:102170001A0C7B681B6802F004025A607B681B68BB
:10218000DA697B681B6822F40062DA617B680022EE
:102190005A657B68012283F85120002318460837CE
:1021A000BD4680BD80B584B000AFF860B96013460D
:1021B000FB80FB6893F85130DBB2012B01D0022386
:1021C0007FE0FB689B68002B10D1FB685B68B3F570
:1021D000827F0BD1FB68042283F85120FB88BA6808
:1021E000B968F86800F076F803466AE0BB68002B2F
:1021F00002D0FB88002B01D1012362E0FB6893F839
:102200005030012B01D102235BE0FB68012283F8EF
:102210005020FB68042283F85120FB6800225A6595
:10222000FB68BA689A63FB68FA889A87FB68FA8841
:10223000DA87FB6800221A63FB6800229A86FB6833
:102240000022DA86FB6800225A64FB68DB68002BF8
:1022500003D0FB681D4A1A6402E0FB681C4A1A643A
:10226000FB689B68B3F5004F0FD1FB681B681A68C9
:10227000FB681B6822F040021A60FB681B681A6842
:10228000FB681B6822F480421A60FB681B681B68AD
:1022900003F04003402B07D0FB681B681A68FB68FB
:1022A0001B6842F040021A60FB68002283F850204D
:1022B000FB681B685A68FB681B6842F060025A6042
:1022C000002318461037BD4680BD00BF792900089D
:1022D0002F29000880B487B000AFF860B9607A6039
:1022E0007B80FB6893F85130FB75FB685B683B6152
:1022F000FB7D012B0CD03B69B3F5827F06D1FB68D7
:102300009B68002B02D1FB7D042B01D0022361E0EE
:10231000BB68002B05D07B68002B02D07B88002B8C
:1023200001D1012356E0FB6893F85030012B01D115
:1023300002234FE0FB68012283F85020FB6893F8EA
:102340005130DBB2042B03D0FB68052283F8512007
:10235000FB6800225A65FB68BA681A63FB687A88D2
:102360009A86FB687A88DA86FB687A689A63FB68E3
:102370007A889A87FB687A88DA87FB68DB68002BA3
:1023800006D0FB68164A1A64FB68164A5A6405E0D0
:10239000FB68154A1A64FB68144A5A64FB681B6898
:1023A0001B6803F04003402B07D0FB681B681A68CA
:1023B000FB681B6842F040021A60FB68002283F849
:1023C0005020FB681B685A68FB681B6842F0E002FB
:1023D0005A60002318461C37BD4680BC704700BFBA
:1023E00071280008D1280008AD270008112800082E
:1023F00080B586B000AF78600023FB756A4B1B6820
:102400006A4AA2FB03235B0A642202FB03F3FB601C
:10241000FB683B617B681B685A687B681B6822F01D
:1024200020025A607B681B685B6803F08003002B06
:1024300017D07B685E4A5A643B69002B06D17B68E3
:102440005B6D43F040027B685A6508E03B69013BE5
:102450003B617B6893F85130DBB2072BECD1FB6812
:102460003B617B681B685B6803F04003002B17D05F
:102470007B68504A1A643B69002B06D17B685B6D10
:1024800043F040027B685A6508E03B69013B3B61D1
:102490007B6893F85130DBB2072BECD1FB683B61D2
:1024A0007B681B685B6803F00203002B2ED07B68FF
:1024B0009B6C002B2AD07B689B6C00225A637B6844
:1024C0009B6C1846FEF7D5FF0346002B02D07B68B5
:1024D00040225A657B681B685A687B681B6822F03B
:1024E00002025A603B69002B06D17B685B6D43F0AA
:1024F00040027B685A6509E03B69013B3B617B68B0
:102500001B689B6803F00203002BEBD07B681B6801
:102510005B6803F00103002B22D07B68DB6C002B8F
:102520001ED07B68DB6C00225A637B68DB6C18462C
:10253000FEF79FFF0346002B02D07B6840225A65BE
:102540007B681B681A687B681B6822F040021A606F
:102550007B681B685A687B681B6822F001025A601E
:102560007B680022DA877B680022DA867B685B6DF5
:10257000402B02D10123FB7502E07B6800225A65E3
:102580000023BB607B681B68DB68BB607B681B68E3
:102590009B68BB60BB687B68012283F85120FB7D90
:1025A00018461837BD4680BD08000020F119760591
:1025B000CD2D0008412D000880B588B000AF7860AF
:1025C0007B681B685B68FB617B681B689B68BB6101
:1025D000BB699B0903F00103002B0FD1BB6903F01A
:1025E0000103002B0AD0FB699B0903F00103002BB8
:1025F00004D07B681B6C78689847BEE0BB695B08B9
:1026000003F00103002B0AD0FB69DB0903F001038F
:10261000002B04D07B685B6C78689847ADE0BB69A1
:102620005B0903F00103002B06D1BB699B0903F092
:102630000103002B00F0A180FB695B0903F001039B
:10264000002B00F09A80BB699B0903F00103002B6B
:1026500023D07B6893F85130DBB2032B11D07B6819
:102660005B6D43F004027B685A6500237B617B68E5
:102670001B68DB687B617B681B689B687B617B698F
:102680000BE000233B617B681B68DB683B617B6878
:102690001B689B683B613B696FE0BB695B0903F0AA
:1026A0000103002B14D07B685B6D43F001027B6853
:1026B0005A650023FB607B681B689B68FB607B6836
:1026C0001B681A687B681B6822F040021A60FB686E
:1026D0007B685B6D002B4FD07B681B685A687B68FA
:1026E0001B6822F0E0025A607B68012283F85120C7
:1026F000FB6903F00203002B04D1FB6903F0010323
:10270000002B34D07B681B685A687B681B6822F0FA
:1027100003025A607B68DB6C002B11D07B68DB6C9A
:10272000174A5A637B68DB6C1846FEF7DDFE0346EA
:10273000002B05D07B685B6D43F040027B685A65D7
:102740007B689B6C002B16D07B689B6C0C4A5A6391
:102750007B689B6C1846FEF7C7FE0346002B0AD029
:102760007B685B6D43F040027B685A6503E07868E4
:10277000FEF744FA00E000BF00BF2037BD4680BD31
:102780008527000880B584B000AF78607B685B6AFD
:10279000FB60FB680022DA87FB680022DA86F868B3
:1027A000FEF72CFA00BF1037BD4680BD80B582B061
:1027B00000AF78607B681B6803F10C027B689B6B41
:1027C0001278D2B21A707B689B6B5A1C7B689A6332
:1027D0007B68DB8F9BB2013B9AB27B68DA877B68B0
:1027E000DB8F9BB2002B0FD17B681B685A687B681C
:1027F0001B6822F060025A607B68DB8E9BB2002B64
:1028000002D1786800F0E8F900BF0837BD4680BD06
:1028100080B582B000AF78607B681A6B7B681B68FC
:102820000C3312781A707B681B6B5A1C7B681A6316
:102830007B68DB8E9BB2013B9AB27B68DA867B6851
:10284000DB8E9BB2002B0FD17B681B685A687B68BC
:102850001B6822F080025A607B68DB8F9BB2002BE2
:1028600002D1786800F0B8F900BF0837BD4680BDD6
:1028700080B582B000AF78607B681B68DA687B68DF
:102880009B6B92B21A807B689B6B9A1C7B689A63E5
:102890007B68DB8F9BB2013B9AB27B68DA877B68EF
:1028A000DB8F9BB2002B0FD17B681B685A687B685B
:1028B0001B6822F040025A607B68DB8E9BB2002BC3
:1028C00002D1786800F088F900BF0837BD4680BDA6
:1028D00080B582B000AF78607B681B6B1A887B681C
:1028E0001B68DA607B681B6B9A1C7B681A637B68C9
:1028F000DB8E9BB2013B9AB27B68DA867B68DB8E0B
:102900009BB2002B0FD17B681B685A687B681B68E1
:1029100022F080025A607B68DB8F9BB2002B02D1D1
:10292000786800F059F900BF0837BD4680BD80B512
:1029300082B000AF78607B681B6803F10C027B6893
:102940009B6B1278D2B21A707B689B6B5A1C7B68A7
:102950009A637B68DB8F9BB2013B9AB27B68DA8714
:102960007B68DB8F9BB2002B02D1786800F0A8F95E
:1029700000BF0837BD4680BD80B582B000AF78602B
:102980007B681B68DA687B689B6B92B21A807B68F5
:102990009B6B9A1C7B689A637B68DB8F9BB2013BC5
:1029A0009AB27B68DA877B68DB8F9BB2002B02D1FF
:1029B000786800F085F900BF0837BD4680BD00008B
:1029C00080B588B000AFF860B9603B601346FB711A
:1029D000FEF738FC0246BB6A9B1A3A681344FB6157
:1029E000FEF730FCB861394B1B685B011B0DFA69BF
:1029F00002FB03F37B6154E03B68B3F1FF3F50D02F
:102A0000FEF720FC0246BB69D31AFA699A4202D942
:102A1000FB69002B3DD1FB681B685A68FB681B688B
:102A200022F0E0025A60FB685B68B3F5827F11D147
:102A3000FB689B68B3F5004F04D0FB689B68B3F557
:102A4000806F07D1FB681B681A68FB681B6822F05F
:102A500040021A60FB689B6AB3F5005F0FD1FB6808
:102A60001B681A68FB681B6822F400521A60FB6836
:102A70001B681A68FB681B6842F400521A60FB6806
:102A8000012283F85120FB68002283F850200323A1
:102A900017E07B69002B01D10023FB617B69013BBF
:102AA0007B61FB681B689A68BB681340BA689A42EE
:102AB0000CBF01230023DBB21A46FB799A429BD15B
:102AC000002318462037BD4680BD00BF0800002007
:102AD00080B586B002AFF860B9607A60FB685B6869
:102AE000B3F5827F11D1FB689B68B3F5004F04D02A
:102AF000FB689B68B3F5806F07D1FB681B681A6899
:102B0000FB681B6822F040021A60FB685B68B3F543
:102B1000827F17D1FB689B68B3F5806F12D17B6809
:102B20000093BB6800220121F868FFF749FF0346C4
:102B3000002B1AD0FB685B6D43F02002FB685A65DE
:102B4000032313E07B680093BB6800228021F868B0
:102B5000FFF736FF0346002B07D0FB685B6D43F0A1
:102B60002002FB685A65032300E000231846103753
:102B7000BD4680BD80B586B002AFF860B9607A60AE
:102B80007B680093BB6801220221F868FFF718FFF9
:102B90000346002B07D0FB685B6D43F02002FB6807
:102BA0005A65032313E07B680093BB6800228021F1
:102BB000F868FFF705FF0346002B07D0FB685B6D45
:102BC00043F02002FB685A65032300E00023184607
:102BD0001037BD4680BD000080B586B000AF78607C
:102BE000354B1B68354AA2FB03235B0A642202FBB8
:102BF00003F33B61FEF726FB78617B681B685A682C
:102C00007B681B6822F020025A603B69002B06D1CA
:102C10007B685B6D43F020027B685A6509E03B6985
:102C2000013B3B617B681B689B6803F00203002B40
:102C3000EBD07A6964217868FFF79CFF0346002B8C
:102C400005D07B685B6D43F020027B685A657B682A
:102C50009B68002B0AD10023FB607B681B68DB6844
:102C6000FB607B681B689B68FB60FB687B685B6D37
:102C7000002B15D17B6893F85130DBB2042B07D1C0
:102C80007B68012283F851207868FDF7EBFF0EE0A6
:102C90007B68012283F851207868FEF71BF806E074
:102CA0007B68012283F851207868FDF7A7FF00BFF9
:102CB0001837BD4680BD00BF08000020F119760519
:102CC00080B584B000AF78607B681B685A687B6809
:102CD0001B6822F060025A60FEF7B4FA03461A46F7
:102CE00064217868FFF7F4FE0346002B05D07B686B
:102CF0005B6D43F020027B685A657B689B68002B04
:102D00000AD10023FB607B681B68DB68FB607B6883
:102D10001B689B68FB60FB687B68012283F851207D
:102D20007B685B6D002B03D17868FDF79BFF02E0A9
:102D30007868FDF763FF00BF1037BD4680BD000017
:102D400080B485B000AF78600023FB601D4B1B682A
:102D50001D4AA2FB03235B0A642202FB03F3BB6050
:102D6000BB68002B06D17B685B6D43F040027B683B
:102D70005A6509E0BB68013BBB607B681B689B68C8
:102D800003F00203002BEBD07B681B681A687B689A
:102D90001B6822F040021A607B681B685A687B68D7
:102DA0001B6822F0E0025A607B681B68DB68FB60EE
:102DB000FB687B68072283F8512000BF1437BD46AB
:102DC00080BC704708000020F119760580B483B0FC
:102DD00000AF78607B681B685A687B681B6822F0CC
:102DE00080025A607B681B681A687B681B6822F047
:102DF00040021A607B68072283F8512000BF0C371D
:102E0000BD4680BC7047002B2DE9F0471D46BBBF77
:102E100003F100431D4600232D2388B01446B8BF9C
:102E20001446129A109E1370149BDDF84CA023F0E8
:102E30002008B8F1460F05D0B8F1450F00D1013692
:102E4000022300E0032307AA049206AACDE902A206
:102E5000CDE9003622462B4601F07EF8B8F1470F47
:102E6000074619D1119BDB070ED500EB060900229E
:102E7000002320462946FDF797FD08B1CDF81C90A8
:102E80003022079B4B451ED33846079B159ADB1B08
:102E9000136008B0BDE8F087B8F1460F00EB0609F3
:102EA000E5D10378302B0AD10022002320462946A1
:102EB000FDF77AFD18B9C6F10106CAF80060DAF824
:102EC00000309944D3E7591C07911A70D9E7F7B538
:102ED0000029B6BF2D232B234942092902704370D4
:102EE00029DD0DF107031D460A27B1FBF7F61A4647
:102EF00007FB1614303402F8014C0C46632C3146A3
:102F000003F1FF33F1DC3031941E03F8011C23463A
:102F1000411CAB420AD30DF109039B1AAC4288BF96
:102F2000002302330344181A03B0F0BD13F8016BF9
:102F300001F8016FEDE7302330318370C170031D5C
:102F4000F1E700002DE9F04F91B00C46DDF8688004
:102F500016461F46054600F0EBFE03681846089328
:102F6000FDF7F6F800230E93D8F8003009900733E8
:102F700023F0070303F1080294F818A0D4F800B076
:102F8000C8F80020D3E9008929F000430B93CDF85D
:102F900028804FF0FF32DDE90A01C4E912899C4B19
:102FA000FDF734FD70BBDDE90A014FF0FF32984BAD
:102FB000FDF70EFD30BB0022002340464946FDF7D9
:102FC000FDFC10B12D2384F84330924A924BBAF1A4
:102FD000470F8CBF9046984603234FF000092361AA
:102FE0002BF00403236033462146284600970FAA9E
:102FF00000F0D4F9013040F090804FF0FF3011B074
:10300000BDE8F08F42464B4640464946FDF7FEFC80
:1030100048B14B46002BB8BF2D23804AB8BF84F877
:1030200043307F4BD3E763680AF0DF015A1C3FD17E
:103030000623636000224BF48063236006920EAA8D
:10304000CDE904A20DAA03920DF13302CDE90132BC
:1030500063684246009328464B460A91FFF7D3FE29
:103060000A99804647290D9928D1C81C02DB63685C
:10307000994240DDAAF1020A5FFA8AFA5246013902
:1030800004F150000D91FFF722FF0E9A81461318AC
:10309000012A236102DC2268D20701D501332361B2
:1030A0009DF83330002B9ED02D2384F843309AE7CF
:1030B0004729BFD1002BBDD10123BAE7BAF1650F73
:1030C000DCD9BAF1660F18D1002963680BDD2161E4
:1030D00013B92268D00702D501330B4423614FF0A6
:1030E0000009A165DCE713B92268D20701D50233D4
:1030F000F4E70123F2E74FF0670A0E9B994205DBE4
:1031000023682161D807EAD54B1CE7E70029CCBF2B
:103110000122C1F102021344E0E723685A0507D4F3
:103120002369424631462846B84701302BD164E72F
:10313000BAF1650F40F2DC80D4E9120100220023CD
:10314000FDF732FC002833D0012331462846354AAA
:10315000B84701303FF451AFDDE90D38434502DB9C
:103160002368D8070FD5DDE9082331462846B8473C
:1031700001303FF442AF4FF0000908F1FF3804F18D
:103180001A0AC84509DC23689B0700F10281E06840
:103190000F9B9842B8BF184631E70123524631468B
:1031A0002846B84701303FF428AF09F10109E8E7A4
:1031B0000D9B002B38DC012331462846194AB847BD
:1031C00001303FF41AAFDDE90D3959EA030302D1AA
:1031D0002368D907D7D5DDE9082331462846B84703
:1031E00001303FF40AAF4FF0000A04F11A0B0D9BB7
:1031F0005B42534501DC4B4693E701235A46314677
:103200002846B84701303FF4F8AE0AF1010AEEE76C
:10321000FFFFEF7FFE740008FA74000806750008CF
:10322000027500080A750008A36DDDF838A0534543
:10323000A8BF5346002B994636DC4FF0000B29EA15
:10324000E97904F11A02A36D0A93A3EB09035B4524
:1032500031DC0D9B9A453ADC2368DA0737D40D9BA5
:10326000AAEB03090A9BAAEB03039945A8BF994659
:10327000B9F1000F33DC4FF0000829EAE97904F1D5
:103280001A0B0D9BAAEB0303A3EB090343457FF73E
:103290007AAF01235A4631462846B84701303FF4F9
:1032A000ACAE08F10108ECE7424631462846B84783
:1032B0000130C2D1A1E60123314628460A92B8471F
:1032C00001303FF49AAE0A9A0BF1010BBBE731468D
:1032D000DDE908232846B8470130C0D18DE60A9AB7
:1032E0004B46314628464244B8470130C3D184E6B4
:1032F000DDF838A0BAF1010F01DCDB0736D5012378
:10330000424631462846B84701303FF476AEDDE903
:10331000082331462846B84701303FF46EAED4E961
:103320001201002200230AF1FF3AFDF73DFBC0B96C
:10333000534608F1010231462846B84701300CD106
:103340005BE601235A4631462846B84701303FF430
:1033500054AE08F10108D045F3DB4B4604F15002AE
:10336000E0E64FF0000804F11A0BF4E701234246AF
:10337000E1E701234A4631462846B84701303FF489
:103380003CAE08F10108E3680F995B1A4345F0DC95
:10339000FDE64FF0000804F11909F4E72DE9F047C4
:1033A000164698468A680B6907469342B8BF13468B
:1033B000336091F843200C46DDF820900AB10133C8
:1033C00033602368990642BF33680233336025684F
:1033D00015F0060506D104F1190AE36832689B1A54
:1033E000AB422BDC94F843302268003B18BF01232A
:1033F000920630D44146384604F14302C8470130B2
:1034000023D02368226903F00603042B14BF002590
:1034100033684FF0000608BFE56804F11A0408BFDE
:10342000ED1A54F8123C08BF25EAE5759342C4BF73
:103430009B1AED18B5421AD1002008E0012352462C
:1034400041463846C847013003D14FF0FF30BDE850
:10345000F0870135C1E73020E11881F843005A1C9C
:1034600094F845102244023382F84310C2E7012346
:10347000224641463846C8470130E6D00136D9E7F2
:103480002DE9FF470F7E9146782F80460C469A46DD
:103490000C9E01F1430207D8622F0AD8002F00F0DA
:1034A000D180582F00F0B88004F1420684F84270B1
:1034B0003AE0A7F16303152BF6D801A151F823F0E8
:1034C000193500082D350008A9340008A934000872
:1034D000A9340008A93400082D350008A9340008D3
:1034E000A9340008A9340008A93400082B360008C4
:1034F00057350008E5350008A9340008A93400084C
:103500004D360008A934000857350008A9340008D2
:10351000A9340008ED35000833681A1D1B683260B5
:1035200004F1420684F8423001239CE033682068AD
:10353000191D3160060601D51D6803E04506FBD55F
:10354000B3F90050002D03DA2D236D4284F8433087
:103550000A23584811E021683368080653F8045BD1
:1035600002D4490648BFADB26F2F336014BF0A239F
:1035700008235048002184F843106668002EA66096
:1035800005DB21682E4321F0040121604BD0164653
:10359000B5FBF3F103FB1157C75D06F8017D2F461C
:1035A000BB420D46F4D9082B0BD12368DF0708D5A1
:1035B000236961689942DEBF302306F8013C06F1B9
:1035C000FF36921B22614B4621464046CDF800A0B3
:1035D00003AAFFF7E3FE01304AD14FF0FF3004B0F9
:1035E000BDE8F087236843F0200323607827324842
:1035F00084F84570236831681F0651F8045B02D4D3
:103600005F0648BFADB23160D90744BF43F0200325
:1036100023601DB11023ADE72648E9E7236823F0B6
:1036200020032360F6E71646BDE733682568181DBA
:10363000616930602E061B6801D5196002E06806DA
:10364000FBD51980002316462361BCE733680021AF
:103650001A1D32601E686268304600F0E0FB08B157
:10366000801B606063682361002384F84330AAE70D
:103670003246494640462369D0470130ADD02368E1
:103680009B0713D4E068039B9842B8BF1846A6E78F
:103690000123324649464046D04701309DD001358E
:1036A000E36803995B1AAB42F2DCEBE7002504F117
:1036B0001906F5E70C7500081D7500082DE9F04F97
:1036C00087B003938B6891465A1EB2F5AE7F82BFD6
:1036D0006FF4AE7503EB050B40F25D130A464FF035
:1036E000000588BF8B600B68804643F4F06342F8A6
:1036F0001C3B0C4698BF4FF0000B1646AA462F46BF
:10370000CDE9045501920295A2685AB1D9F800306A
:103710001B784E2B62D8402B3AD8A3F12B01C8B2AC
:103720000E2838D91FB1236823F4807323600AF16F
:10373000FF3ABAF1010F00F21481019B9E4200F2A0
:103740000581012007B0BDE8F08FA3F161020D2AC9
:10375000E8D801A151F822F0A13800082537000867
:103760002537000825370008FD380008D73800083D
:103770002537000825370008AF380008253700082E
:103780002537000825370008253700086B38000862
:10379000A3F14102DBE70E29C4D801A050F821F0C3
:1037A0005B380008253700085B380008EB38000854
:1037B00025370008FD370008413800084138000867
:1037C00041380008413800084138000841380008F5
:1037D0004138000841380008413800086E2B09D8EC
:1037E000602BB2D8542B7BD0592B9BD1072D99D16C
:1037F00008252FE0742B73D0792BF6E72168C805D4
:103800001ED521F0800121600137BBF1000F03D0EC
:1038100001320BF1FF3BA260A368013BA360236967
:1038200001332361D9F80430013B002BC9F804307F
:1038300040F38380D9F800300133C9F8003063E7E2
:103840001AEB05017FF46EAF0D468A46226822F41A
:10385000C072226006F8013BDEE7226810067FF5A1
:1038600061AF22F080022260F4E7BAF1000F0CD1C0
:1038700077B9226802F4E061B1F5E06F08D122F473
:10388000F0624FF0010A2260E4E7BAF1020F51D072
:10389000012D02D0042D7FF445AF0135EDB2D9E7FB
:1038A000BAF1010F7FF43EAF4FF0020AD2E775B9CB
:1038B000002F7FF438AF226802F4E061B1F5E06FC9
:1038C00040F0FF8022F4F06201252260C2E7032D60
:1038D000E3D0052DDFE7022D7FF424AF0325B9E700
:1038E000062D7FF41FAF0725B4E7226891057FF509
:1038F00019AF22F4207222600297ABE7226802F42B
:10390000A061B1F5806F05D050057FF50BAF002F9A
:1039100000F0D780910558BF029922F4F06258BF99
:10392000791A42F4C0724FF0000758BFCDE904166F
:1039300022608FE74FF0030A8CE749464046D4F8EF
:103940008031984700283FF4DFAEEBE6D4F87C31B5
:103950004A46404616F8011D98472369013B2361FA
:10396000EBE66B1E062B24D8022D36D8019B9E4217
:103970007FF6E7AED4F87C314A46404616F8011D82
:1039800098472369013B2361F0E7D4F87C314A462C
:1039900040461BF8011D98472369013B23610AF14A
:1039A000FF3A5FFA8AFABAF1020FEED1033DEDB2A7
:1039B000761B2368DA0530D55B0511D5019B9E4245
:1039C0007FF6BFAED4F87C314A46404616F8011D5A
:1039D00098472369013B2361F0E7AA46B346DEE737
:1039E00016F8011C2369652903F1FF3306F1FF3541
:1039F00023610CD045290AD0D4F87C314A46404690
:103A00009847236916F8021C013BB51E23614A46FC
:103A10004046D4F87C3198472E46226812F01002B6
:103A200001D000208EE63270236803F4C063B3F542
:103A3000806F25D1029B9F420AD0DA1B04F26F13DC
:103A40009E4228BF04F5B77630461F4900F002F9C0
:103A500000224046019902F0EBFB039B25681B689E
:103A600015F0020F06460F4603F1040215D0039924
:103A70000A601B68C3E90067E3680133E360D0E7CD
:103A8000049B002BE4D005990A234046013102F043
:103A90004FFC049B059EC21AD0E76D07E7D4039D37
:103AA0002A601D6802460B46FCF7B0FF20B10748AC
:103AB00000F0C4F92860DFE730463946FDF704F826
:103AC000F8E7002733E600BF2E7500086F76000880
:103AD000002310B50446C0E90033C0E90433836015
:103AE00081814366C2818361194608225C3000F0FF
:103AF00016F90D4B246263620C4BA3620C4BE3621C
:103B00000C4B23630C4B9C4206D003F16802944299
:103B100002D0D0339C4205D104F15800BDE81040DA
:103B200000F07AB910BD00BF993C0008BB3C00080A
:103B3000F33C0008173D000864020020024A0349D4
:103B4000034800F069B800BF14000020E5660008D3
:103B50002400002041680C4B10B59942044601D066
:103B600002F0C0FDA168094B994202D0204602F044
:103B7000B9FDE168064B994204D02046BDE81040EB
:103B800002F0B0BD10BD00BF64020020CC020020D6
:103B90003403002010B50B4B0B4C0C4A20461A6026
:103BA00004210022FFF794FF04F16800012209219B
:103BB000FFF78EFF04F1D0000222BDE81040122171
:103BC000FFF786BF9C030020640200203D3B0008F5
:103BD000014800F022B900BFA5030020014800F011
:103BE0001DB900BFA503002010B50446FFF7F0FF84
:103BF000236A1BB1BDE81040FFF7F0BF044B2362FE
:103C0000044B1B68002BF5D1FFF7C4FFF2E700BFA0
:103C1000553B00089C0300202DE9F84307468846E1
:103C200014460026D4E90195B9F1010905D52468A7
:103C3000002CF7D13046BDE8F883AB89012B07D9BA
:103C4000B5F90E30013303D029463846C047064344
:103C50006835E9E70EB46FF0004110B500249DB05F
:103C60001FAB02900690079104910948094953F847
:103C7000042B0591006802A901931B9402F0B6FB86
:103C8000029B1C701DB0BDE8104003B0704700BF20
:103C9000200000200802FFFF10B50C46B1F90E10FD
:103CA00000F06CF80028ABBF636DA3891B1823F4E8
:103CB0008053ACBF6365A38110BD2DE9F0411F4661
:103CC0008B890546DB050C46164605D502230022E6
:103CD000B1F90E1000F040F8A389324623F4805366
:103CE000A38128463B46B4F90E10BDE8F04100F030
:103CF00057B810B50C46B1F90E1000F02DF8431C62
:103D0000A38915BF606523F4805343F48053A381D6
:103D100018BFA38110BDB1F90E1000F00DB8034615
:103D20000244934200D1704703F8011BF9E70000F9
:103D3000004870476001002038B50023054D044657
:103D400008462B60FDF793F9431C02D12B6803B1A1
:103D5000236038BDA003002038B50446084611464C
:103D60000022054D2A601A46FDF7A5F9431C02D131
:103D70002B6803B1236038BDA003002038B504468A
:103D8000084611460022054D2A601A46FDF736F90D
:103D9000431C02D12B6803B1236038BDA00300206F
:103DA00038B50446084611460022054D2A601A46D9
:103DB000FDF741F9431C02D12B6803B1236038BDE4
:103DC000A0030020014B1868704700BF20000020AE
:103DD00070B500260C4D0D4C641BA410A64209D1F1
:103DE00003F06CFB00260A4D0A4C641BA410A6428B
:103DF00005D170BD55F8043B98470136EEE755F8FC
:103E0000043B98470136F2E72C7900082C7900082A
:103E10002C790008307900087047704770470346D6
:103E200010B5C9B202449342184601D1002003E004
:103E3000047801338C42F6D110BD00000048704771
:103E40000000C07F2DE9F74F03690C690746A342C4
:103E50007EDB013CA30000F1140501F1140800937E
:103E600005EB8403019358F8243055F824200133DE
:103E70009A42B2FBF3F608EB84092ED34FF0000A06
:103E8000C446AE46D3465CF8043B98B206FB00A09D
:103E90001B0C020C06FB0323DEF8002080B292B25A
:103EA000121A5A44DEF800004FEA134A9BB2C3EBE1
:103EB000224303EB104392B242EA0342E1454FEA48
:103EC000234B4EF8042BDED2009BEB582BB9019B01
:103ED000043B9D421A462FD33C61384601F0CAF993
:103EE000002825DB2946002058F8042BD1F800C013
:103EF0001FFA82FE1FFA8CF3A3EB0E030344120C8D
:103F0000C2EB234202EB1C429BB243EA0243C1458F
:103F10004FEA224041F8043BE6D255F8242005EB55
:103F2000840322B9043B9D421A460BD33C610136FF
:103F3000304603B0BDE8F08F1268043B002ACBD1B5
:103F4000013CC6E71268043B002AEFD1013CEAE7D6
:103F50000020EEE7000000002DE9F04F14461D465A
:103F6000C76997B08146CDE90645239E7FB91020E9
:103F700000F00EFE0246C9F81C0020B9EF21AC4B40
:103F8000AC4802F027FCC0E901770760C760D9F8A8
:103F90001C30196859B15A68012393404A608B60FC
:103FA000484600F0EBFE0022D9F81C301A602B1EA8
:103FB000AFBF0023012223F000430793A8BF336063
:103FC000DDF81C809C4BB8BF326033EA080312D185
:103FD00042F20F73229A1360C8F31303234300F0D5
:103FE0005E85249BDFF854A2002B00F060850AF167
:103FF000030300F05ABDDDE90623CDE90C23DDE91A
:104000000C0100220023FCF7CFFC074658B1012326
:10401000229A1360249B13B1894B249A1360DFF812
:1040200024A200F044BD14AB019315AB00934846A5
:10403000DDE90C2301F036FAC8F30A560390002E8E
:1040400078D0DDE90C010D9BA6F2FF36C3F3130314
:1040500043F07F5343F440131297194600227A4BE2
:10406000FCF782F86CA3D3E90023FCF735FA6CA3C4
:10407000D3E90023FCF77AF8044630460D46FCF7F6
:10408000C1F969A3D3E90023FCF726FA02460B46DF
:1040900020462946FCF76AF804460D46FCF7CCFC9E
:1040A00000220746002320462946FCF787FC40B142
:1040B0003846FCF7A7F922462B46FCF775FC00B9F9
:1040C000013F162F54D8DDE90C01604B03EBC70309
:1040D000D3E90023FCF772FC00284BD00023013FFA
:1040E0000F93149B9B1B5A1E49BFC3F1010300236E
:1040F00004930023099254BF04930993002F3BDBE0
:10410000099B0E973B44099300230A93209B092B9C
:1041100065D8052BC4BF043B2093209BC8BF002457
:10412000A3F10203D8BF0124032B64D8DFE803F016
:104130005355382CDDE914631E4406F23243202B1C
:10414000C1BFC3F1400308FA03F806F2124324FA90
:1041500003F3D6BFC3F1200348EA030004FA03F0D7
:10416000FCF740F90122A1F1F873013E129274E7C5
:104170000123B5E70F90B4E7049BDB1B04937B425C
:104180000A9300230E93C1E701230B93219B07EBB6
:10419000030B0BF10103012B0893B8BF012306E0C9
:1041A00001230B93219B002B28DD9B4608930021C4
:1041B0000422D9F81C0002F114059D4226D9416061
:1041C000484600F09BFD8246002843D1024640F25B
:1041D000AF111F4BD4E60023E3E70023D5E701240A
:1041E00000230B9420934FF0FF3B00221223CDF8C5
:1041F00020B02192DBE701230B93F4E74FF0010B92
:104200005B46CDF820B0CDF884B0D0E70131520044
:10421000D1E700BFAFF3008061436F63A787D23F50
:10422000B3C8608B288AC63FFB799F501344D33FA5
:1042300040750008577500080000F07F3C750008C5
:104240000B7500080A7500080000F83F08770008A1
:10425000AF750008D9F81C301860089B0E2B00F2CF
:10426000A180002C00F09E80002F33DD9C4B07F0D6
:104270000F0203EBC203F805D3E90034CDE9103493
:104280004FEA271416D5DDE90C01964B0326D3E936
:104290000823FCF74BFACDE9060104F00F04914D19
:1042A00054B9DDE91023DDE90601FCF73FFACDE959
:1042B000060128E00226F2E7E10708D5DDE9100152
:1042C000D5E90023FCF708F9CDE9100101366410A7
:1042D0000835E5E700F0AF80DDE90C017C42804B5A
:1042E00004F00F0203EBC203D3E90023FCF7F4F858
:1042F00002260023CDE906017A4D2411002C40F05E
:104300008F80002BD3D1DDE906450F9B002B00F0F9
:104310009480002220462946734BFCF74FFB00286F
:1043200000F08B80089B002B00F08780BBF1000F12
:1043300034DD2046002229466C4BFCF7CDF85C4664
:10434000CDE9060107F1FF3801363046FCF75AF88F
:10435000DDE90623FCF7C0F80022654BFBF706FFFA
:104360000546A1F15076002C6AD1DDE90601002254
:10437000604BFBF7F9FE02460B46CDE906232A46C1
:104380003346FCF739FB002840F09882DDE906014E
:104390002A4606F10043FCF711FB38BBDDE90C347B
:1043A000CDE90634159B002BC0F257810E2F00F388
:1043B00054814B4B03EBC703D3E90034CDE90434FC
:1043C000219B002B80F2E580089B002B00F3E1800D
:1043D0000CD1DDE904010022464BFCF77DF8DDE954
:1043E0000623FCF7FFFA002800F066820024254629
:1043F000219B56466FEA030800272146484600F0F5
:10440000BDFC002D00F0BD802FB1AF4203D0394676
:10441000484600F0B3FC2946484600F0AFFCB0E047
:10442000E20705D5D5E90023FCF756F8012301364C
:104430006410083562E7022665E7B846089C84E701
:10444000274B0B9903EBC40353E90223544400297F
:1044500054D000202849FCF769F933462A46FBF777
:1044600083FE5646CDE91001DDE90601FCF7E4FACA
:104470000546FBF7C7FF02460B46DDE90601FBF7E1
:1044800073FE02460B463035CDE90623DDE91023E5
:1044900006F8015BFCF792FA002872D1DDE90623E9
:1044A00000201149FBF760FEDDE91023FCF786FAD6
:1044B000002840F0B480A6423FF470AFDDE910015F
:1044C00000220A4BFCF708F80022CDE91001DDE9D3
:1044D0000601064BFCF700F8CDE90601C4E700BF72
:1044E00008770008E07600080000F03F0000244054
:1044F00000001C40000014400000E03F3146284608
:10450000FBF7EAFF5646CDE910011394DDE90601F9
:10451000FCF792FA0546FBF775FF02460B46DDE90C
:104520000601FBF721FE02460B46303506F8015B1B
:10453000A642CDE906234FF0000224D1DDE91001A7
:10454000AE4BFBF713FE02460B46DDE90601FCF716
:1045500053FA002863D1DDE910230020A749FBF7B7
:1045600003FE02460B46DDE90601FCF727FA0028A8
:104570003FF414AF139E731E139316F8013C302BB7
:10458000F8D047463BE09E4BFBF7A6FFCDE906017E
:10459000BCE75646DDE90645DDE904232046294609
:1045A000FCF7C4F8FCF748FA8046FBF72BFFDDE97F
:1045B0000423FBF791FF02460B4620462946FBF7F2
:1045C000D3FD08F13004089D06F8014BA6EB0A0460
:1045D000A54202460B4633D1FBF7C8FDDDE90423B3
:1045E00004460D46FCF708FAC0B9DDE9042320466D
:1045F0002946FCF7D9F910B118F0010F0ED1484641
:10460000039900F0BBFB00233370229B01371F602E
:10461000249B002B00F04B821E6048E2B8463346D4
:104620001E4613F8012D392A06D19A45F8D13022B9
:1046300008F101088AF800201A7801321A70A0E700
:1046400000226F4BFBF748FF0022002304460D4673
:10465000FCF7AAF900289FD0D1E70B9A002A00F0B6
:10466000EA80209A012A00F3CD80129A002A00F0F5
:10467000C18003F233430A9C049E049A01211A4428
:104680000492099A48461A44099200F075FC0546BE
:1046900066B1099B002B09DDB342A8BF3346049ADB
:1046A000F61AD21A0492099AD31A09930A9B0BB3E9
:1046B0000B9B002B00F0C680002C00F0C080294628
:1046C0002246484600F010FD039A0146054648463A
:1046D00000F068FC03998046484600F04FFB0A9BB7
:1046E0001B1B0A9300F0B18041460A9A484600F02D
:1046F000FBFC03900121484600F03EFC0E9B044663
:10470000002B00F0D8811A460146484600F0ECFC28
:10471000209B0446012B00F39F80069B002B40F05A
:104720009780079BC3F31303002B40F09380079BF4
:1047300023F000431B0D1B0533B1049B013304938D
:10474000099B0133099301230A930E9B002B00F070
:10475000B881236904EB8303186900F0C1FBC0F141
:104760002000099B184410F01F0000F08280C0F167
:104770002003042B73DD049BC0F11C00034404934D
:10478000099B064403440993049B002B05DD1A464C
:104790004846039900F002FD0390099B002B05DDBC
:1047A00021461A46484600F0F9FC04460F9B002BB0
:1047B00061D02146039800F05DFD00285BDA0023FC
:1047C0000A224846039900F0FBFA0B9B07F1FF38D9
:1047D0000390002B00F07781294600230A224846E7
:1047E00000F0EEFABBF1000F05466FDC209B022BB8
:1047F00049DC6BE0149BC3F136033CE70000E03F6B
:1048000000002440089B5C1E0A9BA34209DB1C1B82
:10481000089B002BBFF630AF049B089A9E1A00231A
:104820002BE70A9B0E9AE31A1A440A94049E00246A
:10483000089B0E9221E70A9C049E0B9D28E7DDF859
:104840000C8051E70A9A039950E7CDF80C8051E7A4
:10485000002379E7069B77E700230A9379E793D053
:10486000049A1C331A440492099A1E441A44099269
:104870008AE70346F4E7089BB846002B20DC9B46FA
:10488000209B022B1EDDBBF1000F7FF4B1AD214652
:104890005B460522484600F093FA01460446039819
:1048A00000F0E8FC00287FF7A3AD5646312308F15D
:1048B000010806F8013B9FE5B846089C2546F4E749
:1048C000DDF820B00B9B002B00F00181002E05DDF0
:1048D00029463246484600F061FC05460A9B002BFB
:1048E0005CD04846696800F009FA064628B90246D5
:1048F00040F2EF21804BFFF743BB2A6905F10C0121
:10490000023292000C3001F051FF0122314648463C
:1049100000F044FC2F4605460AF1010304930AEB1C
:104920000B030A93069B03F001030993049B2146A2
:10493000039803F1FF3BFFF785FA0346394630330E
:10494000069003980B9300F095FC2A4608902146A8
:10495000484600F0ABFCC26806460B9B02BB014612
:10496000039800F087FC02460B9B31464846CDE990
:104970000B3200F003FA209B0C9A049E42EA0301DA
:10498000099B19430B9B0DD1392B27D0089A002A7C
:1049900001DD069B31338BF800302EE52846B9E760
:1049A0000122E2E70899002904DB209801430998D5
:1049B000014320D1002AEEDD0122039948460493E9
:1049C00000F0ECFB2146039000F054FC0028049B0F
:1049D00002DCE0D1DA07DED5392BDAD139238BF8C6
:1049E000003033461E4616F8012C013B392A4ED0C2
:1049F00001321A7001E5002A03DD392BEED00133B4
:104A0000C9E7049A0A9902F8013C8A4228D0002397
:104A10000A220399484600F0D3F9AF4203904FF0C1
:104A200000034FF00A023946484607D100F0C8F9A2
:104A300007460546049B0133049377E700F0C0F96D
:104A40002946074600230A22484600F0B9F90546E0
:104A5000F0E7BBF1000FCCBF5E46012600275644AD
:104A6000012203994846049300F098FB21460390E5
:104A700000F000FC0028B4DC02D1049BDB07B0D4BA
:104A800033461E4613F8012D302AFAD0B5E49A4574
:104A9000A8D1312308F101088AF80030ADE4249B45
:104AA000DFF858A01BB10AF10803249A136050469E
:104AB00017B0BDE8F08F209B012B7FF72EAE0E9B29
:104AC0000A9301204DE6BBF1000F7FF7D9AE5646A1
:104AD00021460398FFF7B6F900F1300306F8013BD1
:104AE000A6EB0A029345B4DD00230A224846039947
:104AF00000F066F90390EBE7AF7500083375000826
:104B000038B50546002940D051F8043C0C1F002B55
:104B1000B8BFE41800F0E6F81C4A136833B96360C4
:104B200014602846BDE8384000F0E2B8A34208D936
:104B3000206821188B4201BF19685B680918216041
:104B4000EDE71A465B680BB1A342FAD91168501819
:104B5000A0420BD120680144501883421160E0D17B
:104B600018685B68084410605360DAE702D90C23C8
:104B70002B60D6E7206821188B4201BF19685B685B
:104B80000918216063605460CBE738BDAC03002096
:104B9000024B0146186800F025B800BF2000002035
:104BA00070B50F4E0C463168054611B901F0EEFDA7
:104BB00030602146284601F0E9FD431C03D14FF047
:104BC000FF34204670BDC41C24F00304A042F8D07A
:104BD000211A284601F0DAFD0130F2D1EFE700BFDB
:104BE000A80300202DE9F843CD1C25F00305083566
:104BF0000C2D38BF0C25002D064601DBA94204D937
:104C00000C2333600020BDE8F883DFF8D48000F087
:104C100069F8D8F800301C4644BB29463046FFF7F7
:104C2000BFFF431C044658D1D8F800402746002F48
:104C300043D1002C4BD023683946304604EB03099E
:104C400001F0A4FD814542D1216830466D1A294604
:104C5000FFF7A6FF01303AD023682B442360D8F831
:104C600000305A6862BBC8F800700FE02268521B1F
:104C700020D40B2A17D96119A342256018BF5960A7
:104C8000636808BFC8F8001062514B60304600F0FE
:104C90002FF804F10B00231D20F00700C21A1CBFDF
:104CA0001B1AA350AFE76268A3420CBFC8F80020EC
:104CB0005A60EBE723466468AEE73C467F68B6E798
:104CC0001A465B68A342FBD100235360DEE70C2346
:104CD0003046336000F00CF894E70560D6E700BF7B
:104CE000AC0300200148FFF798B800BFA4030020E0
:104CF0000148FFF793B800BFA403002070B5C66950
:104D000004460D4676B91020FFF742FF0246E061E7
:104D100020B96B21174B184801F05CFDC0E9016612
:104D20000660C660E669F36883B1E369DB6853F83F
:104D30002500B8B9012101FA05F6721D204692003E
:104D400001F066FD60B1C0E901560EE021220421A8
:104D5000204601F05DFDE369F060DB68002BE4D1E3
:104D6000002070BD026843F825200023C0E903330A
:104D7000F7E700BF40750008C075000870B5C66948
:104D800005460C4676B91020FFF702FF0246E8619F
:104D900020B98F21084B094801F01CFDC0E90166CC
:104DA0000660C6603CB1EB696268DB6853F82210AC
:104DB000216043F8224070BD40750008C0750008AE
:104DC0002DE9F04107460C461E4600200D6901F111
:104DD000140CDCF80030013099B202FB01611E0CAA
:104DE0000B0C02FB063389B201EB034185424FEA0B
:104DF00013464CF8041BECDC0EB3A368AB4219DC81
:104E0000616838460131FFF779FF804628B90246CC
:104E1000BA210C4B0C4801F0DDFC226904F10C01B5
:104E2000023292000C3001F0C1FC21463846FFF7F7
:104E3000A5FF444604EB850301355E6125612046EC
:104E4000BDE8F081AF750008C07500082DE9F84392
:104E5000154609221F4608330C4693FBF2F306461B
:104E6000012200219A4209DB3046FFF747FF40B993
:104E70000246D321184B194801F0ACFC5200013115
:104E8000F0E7089B092D43614FF00103036116DD34
:104E900004F10909C8462C4418F8013B01460A22CE
:104EA0003046303BFFF78CFFA045F5D1A5F1080453
:104EB0004C442D1B6319BB4204DBBDE8F883092574
:104EC0000A34F6E714F8013B01460A223046303B2B
:104ED000FFF776FFEEE700BFAF750008C07500086A
:104EE0000346B0F5803F3ABF030410200020B3F121
:104EF000807F3CBF1B020830B3F1805F3CBF1B01C9
:104F00000430B3F1804F3CBF9B000230002B05DB27
:104F100013F0804F00F1010008BF202070470368A4
:104F2000024613F007000BD0D90721D4980749BFD8
:104F30005B089B08012013605CBF02201360704770
:104F400099B209B910201B0CD9B209B908301B0A53
:104F5000190704BF1B090430990704BF9B080230DE
:104F6000D90703D45B0800F1010003D01360704738
:104F7000002070472020704710B50C460121FFF734
:104F8000BDFE024628B940F24511044B044801F029
:104F900021FC01234461036110BD00BFAF7500080F
:104FA000C07500082DE9F04F17460A693B6989462C
:104FB0009A42A2BF3B460F4699463D69D9F810A0D8
:104FC000BB68796805EB0A06B34285B0B8BF01310A
:104FD000FFF794FE30B902464FF4B171404B41489F
:104FE00001F0F8FB00F114042346002204EB860EC6
:104FF000734520D307F1140809F1140108EB850566
:1050000001EB8A030293EB1B153B23F003030433EC
:105010001537BD4238BF04230193029B03918B4295
:105020000CD8002E03DD5EF8043D002B55D0066140
:1050300005B0BDE8F08F43F8042BD9E7B1F800A024
:10504000BAF1000F1FD0C446A14600275CF8042B1C
:10505000D9F800301FFA82FB9BB20AFB0B333B44AA
:10506000D9F80070120C3F0C0AFB027202EB1342DB
:105070009BB243EA024365454FEA124749F8043BB5
:10508000E4D8019BE750039B0431B3F80290B9F1D7
:10509000000F20D04746A4464FF0000A2368B7F817
:1050A00000B0BCF802209BB209FB0B22524443EA39
:1050B00002434CF8043B57F8043B4FEA134ABCF850
:1050C0000030BD4209FB0A3303EB12434FEA134A97
:1050D000E5D8019AA35004349FE7013EA1E700BF41
:1050E000AF750008C07500082DE9F843154612F0A9
:1050F000030207460E4607D0254C013A002354F818
:105100002220FFF75DFE0646AD103DD0FC697CB95C
:105110001020FFF73DFD0246F86128B940F2B311B7
:105120001C4B1D4801F056FBC0E901440460C460FB
:10513000D7F81C80D8F808404CB940F271213846A5
:10514000FFF71AFF00230446C8F8080003604FF079
:105150000009EB070AD5314622463846FFF722FF01
:10516000804631463846FFF709FE46466D100BD0A3
:10517000206838B9224621463846FFF713FF2060E1
:10518000C0F800900446E4E73046BDE8F88300BF6D
:10519000D076000840750008C07500082DE9F0477A
:1051A0000C46074691462369496803EB6218A368D9
:1051B0004FEA621A08F10106B3420BDB3846FFF7EB
:1051C0009DFD054648B902464FF4EF71274B28482C
:1051D00001F000FB01315B00EEE7002300F1140158
:1051E00000F110021846534533DB20692AEAEA7AB7
:1051F00004F1140319F01F0901EB8A0103EB800C81
:105200002BD08A460022C9F1200E186800FA09F056
:1052100010434AF8040B53F8042B9C4522FA0EF273
:10522000F3D8ACEB0403153B23F00303043304F180
:105230001500604588BF0423CA500AB108F1020670
:10524000013E384621462E61FFF798FD2846BDE80D
:10525000F08742F8040F0133C5E7043953F8042BF3
:105260009C4541F8042FF9D8EAE700BFAF75000864
:10527000C075000803460A69006930B5801A0ED16E
:105280001433143103EB820401EB820154F8045D02
:1052900051F8042D954203D005D24FF0FF3030BDB8
:1052A000A342F3D3FBE70120F9E700002DE9F74F14
:1052B00089460646114648461446FFF7DBFF051EA1
:1052C00012D129463046FFF719FD024628B940F2AF
:1052D00037213E4B3E4801F07DFA0123C0E90435F9
:1052E000104603B0BDE8F08FBCBF4B46A146304628
:1052F000D9F80410BABF1C4601250025FFF7FEFCB3
:10530000024618B940F24521304BE3E700F1140B97
:10531000D9F8107009F11003C5604FF0000C09F1C5
:105320001405D946266904F1140E05EB87080EEB27
:1053300086060193019B5EF8040B53F804AF81B21B
:1053400001931FFA8AF35B1A000C6344C0EB1A4006
:1053500000EB23409BB243EA004376454FEA204CE2
:1053600049F8043BE6D8331B153B23F003031534FF
:105370000433A64238BF04231D445B441E462C461A
:1053800044450ED308F10301491B21F00301033DFD
:10539000A84538BF00210B4453F8041D99B117618B
:1053A0009EE7E64654F8041B1FFA81FCF444080CFF
:1053B000714400EB2C4089B241EA00414FEA204C95
:1053C00046F8041BDCE7013FE6E700BFAF750008C5
:1053D000C07500080E4B0B40A3F15073002B08DC86
:1053E0005B42B3F1A07F4FEA235204DA4FF400236B
:1053F0001341002208E0A2F114031E2BD6BF4FF088
:1054000000420122DA40002319461046704700BFCF
:105410000000F07F0269F8B500F1140606EB820285
:1054200052F8044C1E4F2046FFF75AFD0346C0F1C8
:1054300020000A2BA2F10405086012DCAE422CBF4A
:10544000002252F8082CC3F10B0C153324FA0CFE81
:1054500004FA03F322FA0CF24EEA07011A4310464B
:10546000F8BDAE4236BFA2F10805002252F8082C62
:105470000B3B12D0C3F1200722FA07F19C400C43EA
:10548000B54244F07F5194BF002455F8044C9A4033
:10549000FC4041F440112243E1E744EA0701DEE722
:1054A0000000F03F2DE97343012190469946089E84
:1054B000FFF724FC044630B9024640F20F31234B7B
:1054C000234801F087F9C9F30A55C9F313030DB155
:1054D00043F480130193B8F1000324D0684600938D
:1054E000FFF71DFDDDE90012D8B1C0F1200302FA7B
:1054F00003F30B43C24063610192019B002B0CBF7D
:1055000001220222A3612261ADB1A5F23345054417
:105510003560C0F13500099B1860204602B0BDE837
:1055200070836161E9E701A8FFF7F9FC019B0122A3
:1055300063612030E7E7A0F2324004EB8203306081
:105540001869FFF7CDFCC0EB4210E4E7AF75000827
:10555000C07500082DE9F04F85B0CDE9001002A913
:10556000FFF758FF8B4606460F46009803A9FFF742
:1055700051FF0D46019B89461969009B04461B6932
:105580003046C91ADDE902329B1A03EB4113002BA6
:10559000CDBF3A462A46C3EB033302EB035BD8BFC9
:1055A00002EB03594B4622465946FBF7BFF805B0BC
:1055B000BDE8F08F013970B549111469013102F16C
:1055C000140300EB810103EB8404051FA3420CD3F9
:1055D000A31A113B23F003031132A24288BF002318
:1055E00018440023884205D370BD53F8046B45F876
:1055F000046FEBE740F8043BF4E700F114020069A4
:105600004B11984210B511DB0ADD11F01F0107D0D4
:1056100052F8234024FA01F000FA01F18C420BD138
:1056200002EB8303934203D8002010BD0346F7E743
:1056300053F8041D0029F5D00120F6E72DE9F041CB
:105640000F469046FFF7C6FE04460D46B8F1000F20
:1056500011D0C7F30A53C3F16B03002B0BDD0024F9
:105660001B0503F17F5505F5401522462B46FAF739
:1056700033FF04460D4620462946BDE8F081000070
:105680002DE9F04F9FB0179200220C461A924FF06E
:10569000000A4FF0000B0A460590199211782B2949
:1056A00048D036D80D2930D8082930D8002939D02B
:1056B00000220E92199D2A78302A40F0B0806A7834
:1056C00002F0DF02582A6CD102930E9B8F4A01939D
:1056D0001AAB009305981BAB19A901F015F910F04E
:1056E0000F06044605D0062E26D100230135199554
:1056F0000E93179B002B40F082850E9BBBB150464A
:105700000BF100411FB0BDE8F08F2029D0D101324C
:10571000C3E72D29CCD101210E91511C199152784A
:10572000002AC7D1179B1994002B40F0668550467C
:105730005946E7E70021EFE71A9A3AB135211CA84C
:10574000FFF738FF1A990598FFF718FB013E1B9ADF
:10575000042E06D8DFE806F014031D201400DDE94E
:105760001CABE10548BF4BF0004B2BF000431B0D79
:105770001B05002BBDD1FEF725FB22230360B8E7F4
:1057800002F23342DDE91CA323F4801343EA025BF7
:10579000E7E7DFF87CB1E4E76FF0004B4FF0FF3A4A
:1057A000DFE7199B5A1C19925B78302BF9D0002B3C
:1057B0009FD0012300270A22B9460893199B0B9713
:1057C0000C9319980578A5F13003D9B2092928D985
:1057D0000122504900F0C8FF002832D000202A469C
:1057E00003464D460A90652A01D0452A14D11DB9B9
:1057F000089A024396D00025199C621C199262787F
:105800002B2A7AD02D2A7ED04FF0000CA2F1300145
:10581000092940F2858019944FF00008A5E0002383
:10582000C8E7B9F1080FD8BF0B9900F10100D6BF46
:1058300002FB013302FB07370B9309F101091990B1
:10584000BFE7199B5A1C19925A78B9F1000F3BD047
:105850004D460A90A2F13003092B12D90123C2E769
:10586000199B01305A1C19925A78302AF8D0A2F1AB
:105870003103082B00F2C8840A9000200546199BCA
:105880000C93303A00F1010318D02E464FF00A0E67
:105890000A9919440A91711CA1EB050C634515DCAA
:1058A00020EAE0702B18082B05F1010505441ADCED
:1058B0000A230B9903FB01230B930023199A184623
:1058C000511C19915278C5E74846CEE7082E05DCF1
:1058D0000B9E0EFB06F60B960E46DCE71029D8BF92
:1058E0000EFB07F7F8E70F2BDCBF0A2303FB0727A4
:1058F000E3E700230A9301237AE74FF0000CA21C90
:105900001992A27882E74FF0010CF8E7E4770008DB
:105910000000F07F19760008199A511C19915278ED
:10592000302AF9D0A2F1310108293FF675AF4FF0C6
:105930000A08303A0992199A0F92199A561C199628
:105940005278A2F1300EBEF1090F39D90F9944F601
:105950001F68761A082E03DC09998845A8BF884677
:10596000BCF1000F01D0C8F10008002D4ED10899FC
:1059700008437FF4BEAE002B7FF4D4AE692A28D052
:1059800025DC492A25D04E2A7FF4CCAE994919A8A6
:1059900001F0DCF900283FF4C5AE199B1B78282BD9
:1059A0002ED195491CAA19A801F0E4F9052827D1A0
:1059B0001D9BDDF870A043F0FF4B4BF4E00B98E625
:1059C000099908FB0121A1F130020992B5E76E2A7D
:1059D000DAE78A4919A801F0B9F900283FF4A2AE24
:1059E000199B8749013B19A8199301F0AFF910B928
:1059F000199B013319934FF0000ADFF808B278E6DB
:105A0000814800F0E1FE82468B4672E60A9BB9F1BE
:105A1000000F08BFA946A8EB0303102D0B982C46D6
:105A20000993A8BF1024FAF7DDFC092D82468B46A6
:105A300011DC099B002B3FF45CAE099B76DD162B35
:105A40005DDC7249524601EBC3015B46D1E90001BE
:105A5000FAF742FDD7E76D4B03EBC40353E912237A
:105A6000FAF73AFD824638468B46FAF7BBFC024607
:105A70000B4650465946FAF779FB0F2D82468B4666
:105A8000D7DD099B2C1B1C44002C40F3938014F0A1
:105A90000F030AD05D49524601EBC301D1E9000171
:105AA0005B46FAF719FD82468B4634F00F0473D03B
:105AB000B4F59A7F49DD0024A046A1460B94222329
:105AC0004FF0000A059ADFF83CB113600B9B002BE6
:105AD0003FF40FAE1A990598FFF750F9494605981B
